:060000000A128A1100291A
:100200003D214421532103138312A001A101A20126
:10021000200800228700132105182B21851834217E
:100220000B1922210B2906082039A200221C0800E4
:10023000A21C0800221D0800A21D08008601A201C0
:10024000081408004D21A10AA11D0800A11C0800E6
:10025000860AA101080005182B29A00A20080022FF
:100260008700A01BA001080085183429A0032008DE
:1002700000228700A01BA0010800031383160F149F
:100280000F128F120F1708000313831681128111AA
:100290000115811401144D210800031383129E30AF
:1002A00081000B11080003178316880189010313CD
:1002B0008316061086100611861105148514071082
:1002C00087100711871107128712071308100313ED
:0C02D00083128601870108100714080043
:100400008A018A140F39820701344F3412340634BA
:100410004C34243420340F34003404340834603431
:08042000313442343034383429
:04400E00C430FF3F7C
:00000001FF
