:060000000A128A1100291A
:1002000011211821212103138312A001A10120082B
:1002100000228700051841218518482155216121B8
:100220000A29031383160F140F128F120F170800D9
:1002300003138316811281110115811401144F21BA
:10024000080003178316880189010313831606101B
:1002500086100611861105148514071087100711E2
:1002600087110712871207130810881008118811C8
:1002700009100313831286018701880109100714EE
:10028000080005184129A00A20080022870008005C
:1002900085184829A00320080022870008000313BE
:1002A00083129E3081000B1108000B1D55294F2130
:1002B000860AA10AA11D0800A11C0800880AA10144
:1002C000080020080802031966210800A10188011E
:0402D000890A08008F
:100400008A018A140F39820701344F3412340634BA
:100410004C34243420340F34003404340834603431
:08042000313442343034383429
:04400E00C430FF3F7C
:00000001FF
